{
  "contractName": "CRUD",
  "abi": [
    {
      "constant": true,
      "inputs": [
        {
          "name": "",
          "type": "uint256"
        }
      ],
      "name": "users",
      "outputs": [
        {
          "name": "id",
          "type": "uint256"
        },
        {
          "name": "name",
          "type": "string"
        }
      ],
      "payable": false,
      "stateMutability": "view",
      "type": "function",
      "signature": "0x365b98b2"
    },
    {
      "constant": true,
      "inputs": [],
      "name": "nextId",
      "outputs": [
        {
          "name": "",
          "type": "uint256"
        }
      ],
      "payable": false,
      "stateMutability": "view",
      "type": "function",
      "signature": "0x61b8ce8c"
    },
    {
      "constant": false,
      "inputs": [
        {
          "name": "_name",
          "type": "string"
        }
      ],
      "name": "create",
      "outputs": [],
      "payable": false,
      "stateMutability": "nonpayable",
      "type": "function",
      "signature": "0xb6a46b3b"
    },
    {
      "constant": true,
      "inputs": [
        {
          "name": "_id",
          "type": "uint256"
        }
      ],
      "name": "read",
      "outputs": [
        {
          "name": "",
          "type": "uint256"
        },
        {
          "name": "",
          "type": "string"
        }
      ],
      "payable": false,
      "stateMutability": "view",
      "type": "function",
      "signature": "0xed2e5a97"
    },
    {
      "constant": false,
      "inputs": [
        {
          "name": "_id",
          "type": "uint256"
        },
        {
          "name": "_name",
          "type": "string"
        }
      ],
      "name": "update",
      "outputs": [],
      "payable": false,
      "stateMutability": "nonpayable",
      "type": "function",
      "signature": "0xf745630f"
    },
    {
      "constant": false,
      "inputs": [
        {
          "name": "_id",
          "type": "uint256"
        }
      ],
      "name": "deleteId",
      "outputs": [],
      "payable": false,
      "stateMutability": "nonpayable",
      "type": "function",
      "signature": "0x3700bd57"
    }
  ],
  "bytecode": "0x60806040526001805534801561001457600080fd5b5061079e806100246000396000f3fe6080604052600436106100775763ffffffff7c0100000000000000000000000000000000000000000000000000000000600035041663365b98b2811461007c5780633700bd571461012557806361b8ce8c14610151578063b6a46b3b14610178578063ed2e5a971461022b578063f745630f14610255575b600080fd5b34801561008857600080fd5b506100a66004803603602081101561009f57600080fd5b503561030f565b6040518083815260200180602001828103825283818151815260200191508051906020019080838360005b838110156100e95781810151838201526020016100d1565b50505050905090810190601f1680156101165780820380516001836020036101000a031916815260200191505b50935050505060405180910390f35b34801561013157600080fd5b5061014f6004803603602081101561014857600080fd5b50356103c5565b005b34801561015d57600080fd5b50610166610407565b60408051918252519081900360200190f35b34801561018457600080fd5b5061014f6004803603602081101561019b57600080fd5b8101906020810181356401000000008111156101b657600080fd5b8201836020820111156101c857600080fd5b803590602001918460018302840111640100000000831117156101ea57600080fd5b91908080601f01602080910402602001604051908101604052809392919081815260200183838082843760009201919091525092955061040d945050505050565b34801561023757600080fd5b506100a66004803603602081101561024e57600080fd5b50356104a5565b34801561026157600080fd5b5061014f6004803603604081101561027857600080fd5b8135919081019060408101602082013564010000000081111561029a57600080fd5b8201836020820111156102ac57600080fd5b803590602001918460018302840111640100000000831117156102ce57600080fd5b91908080601f01602080910402602001604051908101604052809392919081815260200183838082843760009201919091525092955061059d945050505050565b600080548290811061031d57fe5b60009182526020918290206002918202018054600180830180546040805193821615610100026000190190911695909504601f81018790048702830187019095528482529195509193919290918301828280156103bb5780601f10610390576101008083540402835291602001916103bb565b820191906000526020600020905b81548152906001019060200180831161039e57829003601f168201915b5050505050905082565b60006103d0826105de565b90506000818154811015156103e157fe5b600091825260208220600290910201818155906104016001830182610690565b50505050565b60015481565b60408051808201909152600180548252602080830184815260008054938401808255908052845160029094027f290decd9548b62a8d60345a988386fc84ba6bc95484008f6362f93160ef3e56381019485559151805191959493610496937f290decd9548b62a8d60345a988386fc84ba6bc95484008f6362f93160ef3e56401929101906106d7565b50506001805481019055505050565b6000606060006104b4846105de565b90506000818154811015156104c557fe5b9060005260206000209060020201600001546000828154811015156104e657fe5b9060005260206000209060020201600101808054600181600116156101000203166002900480601f01602080910402602001604051908101604052809291908181526020018280546001816001161561010002031660029004801561058c5780601f106105615761010080835404028352916020019161058c565b820191906000526020600020905b81548152906001019060200180831161056f57829003601f168201915b505050505090509250925050915091565b60006105a8836105de565b9050816000828154811015156105ba57fe5b906000526020600020906002020160010190805190602001906104019291906106d7565b6000805b60005481101561062357826000828154811015156105fc57fe5b906000526020600020906002020160000154141561061b57905061068b565b6001016105e2565b50604080517f08c379a000000000000000000000000000000000000000000000000000000000815260206004820152601360248201527f5573657220646f6573206e6f7420657869747300000000000000000000000000604482015290519081900360640190fd5b919050565b50805460018160011615610100020316600290046000825580601f106106b657506106d4565b601f0160209004906000526020600020908101906106d49190610755565b50565b828054600181600116156101000203166002900490600052602060002090601f016020900481019282601f1061071857805160ff1916838001178555610745565b82800160010185558215610745579182015b8281111561074557825182559160200191906001019061072a565b50610751929150610755565b5090565b61076f91905b80821115610751576000815560010161075b565b9056fea165627a7a7230582054777d6f39c172b0c6d35fe95e7429cb9ec8a1c929757c881d4d548dbfdf56830029",
  "source": "// SPDX-License-Identifier: MIT\r\npragma solidity >=0.4.22 <0.9.0;\r\n\r\ncontract CRUD {\r\n    struct User {\r\n        uint256 id;\r\n        string name;\r\n    }\r\n\r\n    User[] public users;\r\n    uint256 public nextId = 1;\r\n\r\n    function create(string memory _name) public {\r\n        users.push(User(nextId, _name));\r\n        nextId++;\r\n    }\r\n\r\n    function read(uint256 _id) public view returns (uint256, string memory) {\r\n        uint256 i = find(_id);\r\n        return (users[i].id, users[i].name);\r\n    }\r\n\r\n    function update(uint256 _id, string memory _name) public {\r\n        uint256 i = find(_id);\r\n        users[i].name = _name;\r\n    }\r\n\r\n    function deleteId(uint256 _id) public {\r\n        uint256 i = find(_id);\r\n        delete users[i];\r\n    }\r\n\r\n    function find(uint256 _id) internal view returns (uint256) {\r\n        for (uint256 i = 0; i < users.length; i++) {\r\n            if (users[i].id == _id) {\r\n                return i;\r\n            }\r\n        }\r\n        revert(\"User does not exits\");\r\n    }\r\n}\r\n",
  "sourcePath": "C:/Users/dpake/OneDrive/Desktop/Project/Block chain/Dapps 30/Day5 - CRUD/contracts/CRUD.sol",
  "compiler": {
    "name": "solc",
    "version": "0.5.0+commit.1d4f565a.Emscripten.clang"
  },
  "schemaVersion": "3.0.1",
  "updatedAt": "2022-06-12T02:14:33.978Z",
  "devdoc": {
    "methods": {}
  },
  "userdoc": {
    "methods": {}
  }
}